:020000001628C0
:0E000600831203132C088A002B0882000800C6
:1000140003208A110A128000840AAB0A0319AC0A6D
:08002400F003031D0A28080087
:10002C00FC3083120313A0006030A100DA30A20070
:10003C00F230A3006630A400B630A500BE30A60096
:10004C00E030A700FE30A800F630A900AA01831604
:10005C00860183122A08203E8400000886000B309B
:10006C00FB002630FC005D30FD00FD0B3B28FC0B3B
:10007C003B28FB0B3B2800000000AA0A2A080A3A7E
:0A008C00031D4928AA012F284A2865
:02400E004A2F37
:00000001FF
