:020000000328D3
:1000060083160313860101308312860083160710B8
:1000160083160718242883120608F000F00D7010C6
:10002600700886000630FB001330FC00AD30FD0082
:10003600FD0B1B28FC0B1B28FB0B1B2800000000DC
:10004600392883120608F000F00CF01370088600B9
:100056000630FB001330FC00AD30FD00FD0B3128EF
:10006600FC0B3128FB0B3128000000000608803A03
:10007600031D402883160714472883120608013AF1
:0C008600031D4728831607100B2848288C
:02400E004A2F37
:00000001FF
