:020000000328D3
:10000600831603138601831286018030A200A301A2
:100016000130A4000030A5008030F00080302506B5
:100026007002031D18282408083C031C3B282408DA
:10003600220786000B30FB002630FC005D30FD00F9
:10004600FD0B2328FC0B2328FB0B232800000000B4
:10005600A30CA20CA313231BA317A31F3728031C4F
:100066003728A20A0319A30AA40DA50D24100F28E8
:10007600A20DA30D2210A20DA30D22100430A40080
:100086000030A50080302506F00080307002031D88
:100096004E2801302402031C7128240822078600FA
:1000A6000B30FB002630FC005D30FD00FD0B5928AF
:1000B600FC0B5928FB0B592800000000A20DA30DCC
:1000C6002210A50CA40CA513251BA517A51F702887
:1000D600031C7028A40A0319A50A452808287228B3
:02400E004A2F37
:00000001FF
