:02000000802856
:0E000600831203132F088A002E0882000800C0
:1000140003208A110A128000840AAE0A0319AF0A67
:08002400F003031D0A28080087
:10002C0083120313860108108814081588152308F9
:10003C00243E8400000886001A30FC00F830FD00D5
:10004C00FD0B2628FC0B2628000008148810081528
:10005C0088152208243E8400000886001A30FC0013
:10006C00F830FD00FD0B3828FC0B38280000081474
:10007C008814081188152108243E84000008860085
:10008C001A30FC00F830FD00FD0B4A28FC0B4A2806
:10009C00000008148814081588112008243E8400D8
:1000AC00000886001A30FC00F830FD00FD0B5C28BF
:0800BC00FC0B5C2800000800A9
:1000C40083120313A00A20080A3A031D7F28A10AF9
:1000D400A00121080A3A031D7F28A20AA1012208CF
:1000E4000A3A031D7F28A30AA20123080A3A031D22
:0C00F4007F28A301A201A101A0010800C7
:1001000083120313A001A101A201A3013F30A400A7
:100110000630A5005B30A6004F30A7006630A8006F
:100120006D30A9007D30AA000730AB007F30AC00F5
:100130006F30AD008316860183128601F03083167E
:10014000880083128801081EB42862200630FB0054
:100150001330FC00AD30FD00FD0BAC28FC0BAC28CF
:0E016000FB0BAC28000000001620A328B628D8
:02400E004A2F37
:00000001FF
