:02000000ED2CE5
:0E000600213083120313FD00FD0B07280800B4
:100014000F3083120313FC004730FD00FD0B102842
:0A002400FC0B10280000000008008B
:06002E00000000000800C4
:1000340083120313DC1B20288611212886155C1BE0
:100044002528061126280615DC1A2A2886102B28AE
:1000540086145C1A2F280610302806143818342801
:10006400061635280612861617208612DC193C2837
:1000740086113D2886155C1941280611422806156B
:10008400DC1846288610472886145C184B2806106E
:100094004C280614381850280616512806128616BD
:1000A40017208612381C58280A20592803200800D3
:0800B400FA1FF21300300800EE
:1000BC007B15FB1F68280130F300F201F101F00100
:0800CC00FA0DF20CFF300800F0
:1000D400FB14FB1F7428FF30F300F200F100F00062
:0800E400FA0DF20CFF300800D8
:0E00EC00F201F101F001F801F301003008000B
:1000FA00A6017208031D92287108F2007008F10027
:10010A00F001A6157208031D92287108F200F10188
:10011A00A611261672080319A0282608F302031D41
:10012A00031CA4280310F21BA828F00DF10DF20DF0
:10013A00F30B9828A4280130FC007620AB28023063
:0E014A00FC005E20AB280430FC005A200800A8
:10015800831203135A08F2007208F100F20A5B08CE
:10016800F000DB0A700884000008F00071088400C1
:10017800700880007108840000080319C428B0289A
:060188005A08F000080017
:10018E000E3083120313FD00FD0BCB280000080078
:10019E008316031386120612061086100611861198
:1001AE0083128612061286110611861006100A2078
:1001BE000A200A20861406148616172086120A2094
:1001CE008616172086120A208616172086120A20F7
:1001DE0006108616172086120A20861617208612FB
:1001EE00861086158616172086120A20861106148A
:1001FE0086161720861206108616172086120A20DB
:10020E0086161720861206148616172086120A20C6
:10021E0006108616172086128615061586140614E5
:0C022E008616172086120A2038140800DB
:10023A0083120313FD01F8017008031900347406D0
:10024A00FA00FA1BFD09FB01F41F2D29F409F40A2F
:10025A00F01F3129F009F00A70087404FA00FA1B39
:10026A0055297408F802F00D700DF80D7408F80796
:10027A00F00D0630FC00700DF80D74087018F802C5
:10028A00701CF807F00DFC0B4029701CF8077B184E
:10029A006329FD1F0034F009F00AF809F80A00344E
:1002AA00F41F6029F01B5D297008F800F0014E293F
:1002BA00F001F00A0034F009FB0A3629F80A74083A
:1002CA007802031D4E29F801F00AF01F4E29FF3467
:0202DA0008001A
:1002DC0083120313FA017308031D7A147708031DA4
:1002EC00FA147A080319BA29033A031985297A18DA
:1002FC008229F61FB829B629F21FB629B829720827
:10030C008039FA00F21376088039F6137A0603194D
:10031C0093297A080319B629B829770873020319A7
:10032C009A29031CAE29B229760872020319A12955
:10033C00031CAE29B229750871020319A829031CE4
:10034C00AE29B229740870020319BA290318B2290C
:10035C00FA080319B829B629FA080319B629B829D5
:10036C000314080003100800031403150800080008
:10037C0083120313FB017308031D77080319152A55
:10038C0072087606FA007708F3077E30031CD22930
:10039C00F3020318182AD529F302031C1B2A72082E
:1003AC00F8007108FC007008FD00F817F617031030
:1003BC00F201F101F0011830A6007D1CEF29740840
:1003CC00F00775080318750FF10776080318760FF8
:1003DC00F207F20CF10CF00CF80CFC0CFD0C0310F9
:1003EC00A60BE329F21BFF29F80DF00DF10DF20D10
:1003FC00F3037B1B701C112AF81F112AF00A031936
:10040C00F10A0319F20A031D112AF20CF10CF00C7B
:10041C00F30A0319182AFA1FF21300301D2A0130AF
:10042C0076201D2A02306A201D2A04305E2000002E
:02043C000800B6
:0E043E008312031337088A0036088200080074
:10044C008312031338105A08DC001A2038140800E1
:10045C00402A803083120313CD00532AC030CD00C4
:10046C00532A9430CD00532AD430CD00532A8030F7
:10047C00CD00532A831203134D08013A03192F2A76
:10048C004D08023A0319342A4D08033A0319372A46
:10049C004D08043A03193A2A3D2A4E03F0004D0840
:1004AC00F0077008CD007008DC001A203810D0015D
:1004BC0050084F078400000803196C2A50084F0796
:1004CC0084000008DA002622D00A5E2A38140800BC
:1004DC00831203137008F8007108F000F101F201A7
:1004EC00F301FB01FC019630F300FA017008F100F6
:0C04FC007808F000F801F2017D200800F3
:1005080083120313D801D9014D08D4004E08D50031
:100518004F08D6005008D7005708FF3A031D9E2AF7
:100528005608FF3A031D9E2A5508FF3A031D9E2AC6
:100538005408FF3A031DA82A5108DA002730DB00C7
:10054800AC200330F000812C0130D200D61FB72A2E
:1005580080305606F0007008D600D20A5108840090
:100568002D308000D10A0030F0005706031DC62A3E
:1005780070085606031DC62A70085506031DC62AAC
:100588005408003A031DCF2A5108DA002C30DB004A
:10059800AC20F001812C5708FF3A031DDD2A5608CC
:1005A800003A031DDD2A5508003A031DDD2A5408C8
:1005B800003A031DE72A5108DA002E30DB00AC2090
:1005C8005208F000812C0030F4000030F5000030B3
:1005D800F6007F30F7005408F0005508F10056087F
:1005E800F2005708F3006E21013003180030F000C4
:1005F800700803191A2B5408F0005508F100560822
:10060800F2005708F3000030F4000030F500203005
:10061800F6008230F700BE217008D4007108D500BA
:100628007208D6007308D700D903E72A0030F4000F
:100638000030F5002030F6008230F7005408F00052
:100648005508F1005608F2005708F3006E210130F2
:10065800031C0030F000700803194D2B5408F000FB
:100668005508F1005608F2005708F300CD30F400A1
:10067800CC30F5004C30F6007B30F700BE21700816
:10068800D4007108D5007208D6007308D700D90ABB
:100698001A2BFF305405F800FF305505F9007F305C
:1006A8005605FA0000305705FB007808F400790871
:1006B800F5007A08F6007B08F700F40DF50DF60D45
:1006C800F70D741000305405F00000305505F100A6
:1006D80000305605F200FF305705F3007008D400CB
:1006E8007108D5007208D6007308D700740854043E
:1006F800F00075085504F10076085604F2007708F2
:100708005704F3007008D4007108D5007208D600A9
:100718007308D7007F305702F0007008D30001300B
:10072800D7007008F4005408F0005508F100560886
:10073800F2005708F30074080319A92BF00DF10D06
:10074800F20DF30D7010FF3EA02B7008D400710855
:10075800D5007208D6007308D7005708303EF0005D
:100768005108840070088000D10A80305906F000D2
:100778008030013A7002031CCA2B8030063AF00020
:10078800803059067002031CCA2BD12B51088400F3
:100798002E308000D10A0130D8000630D30053082B
:1007A800003A03192F2CD7015408F0005508F1001E
:1007B8005608F2005708F300F00DF10DF20DF30D95
:1007C8007010F00DF10DF20DF30D70105408F007D4
:1007D80055080318550FF10756080318560FF20766
:1007E80057080318570FF3077008D4007108D5008D
:1007F8007208D6007308D7005408F0005508F100B5
:100808005608F2005708F300F00DF10DF20DF30D44
:1008180070107008D4007108D5007208D6007308EB
:10082800D7005708303EF000510884007008800057
:10083800D10A5808003A031D2D2CD9035908003A4B
:10084800031D2D2C510884002E308000D10A013060
:10085800D800D303D32BFF30510784000008303A67
:10086800031D382CD1032F2CFF30510784000008BA
:100878002E3A031D402CD1035908003A03197D2C48
:100888005108840065308000D10A80305906F00094
:100898008030003A70020318592C510884002D301A
:1008A8008000D10A5908003CD9005908D30080308B
:1008B800093AF00080305906700203186F2C0A308C
:1008C800F4005308F0001D213030F007510884006F
:1008D80070088000D10A0A30F4005308F0001D2186
:1008E8007808F0003030F007510884007008800064
:0C08F800D10A510884008001F0010800C2
:10090400831203134D08F2007208840000080319CF
:100914008D2CF20A862C7208F100F20A4E08F000BF
:10092400CE0A700884000008F00071088400700882
:1009340080007108840000080319A12C8D2C4D0837
:04094400F0000800B7
:100948004E30831603139F00453083129F00831691
:1009580086018312860183168801CF200130DC00CE
:0A0968001A200C30DC001A200800F1
:100972001F228A110A128000840AB60A0319B70AD2
:08098200F003031DB92C08006D
:10098A00831203139F01C0309F042B09F0007008E3
:10099A0083169F051F179F1783124D08F000F00D4D
:1009AA007010F00D7010F00D701070089F041F1475
:1009BA00C7201F151F1DE32C0000DF2C1F101E0867
:1009CA00F100F00183161E08F0040030F10408005B
:1009DA006025A4240B30FB002630FC005D30FD00AE
:1009EA00FD0BF52CFC0BF52CFB0BF52C0000000085
:1009FA000130DC001A20CD01C52470088312A00042
:100A0A007108A100700888001A30B9006730BA006E
:100A1A001C30BB008130BC006E221A30F4006730F3
:100A2A00F5001C30F6008130F700BE217008A200E4
:100A3A007108A3007208A4007308A5007008CD000D
:100A4A007108CE007208CF007308D0003D30D10083
:100A5A0084223D30CD003230CE0082240130CD00D8
:100A6A000130CE003D30CF002E220230FB00043090
:100A7A00FC00BA30FD00FD0B402DFC0B402DFB0B9A
:0E0A8A00402D00000130DC001A20002D4B2D05
:100AC000273084000F3083120313F0005130B6003A
:080AD0000530B700B92408004D
:080AA2004E3461344E3400347F
:020AAA000F3407
:040AAC0030340034AE
:080AB00049344E344634003491
:080AB80020346D345634003483
:02400E004A2F37
:00000001FF
