:020000001628C0
:0E000600831203132C088A002B0882000800C6
:1000140003208A110A128000840AAB0A0319AC0A6D
:08002400F003031D0A28080087
:10002C00033083120313A0009F30A1002530A200DF
:10003C000D30A3009930A4004930A5004130A60032
:10004C001F30A7000130A8000930A900AA018316AF
:10005C00860183122A08203E8400000886000B309B
:10006C00FB002630FC005D30FD00FD0B3B28FC0B3B
:10007C003B28FB0B3B2800000000AA0A2A080A3A7E
:0A008C00031D4928AA012F284A2865
:02400E004A2F37
:00000001FF
