:020000002C28AA
:10000600FF3083120313A300FF30A400FF30A500C6
:10001600FF301F30A6000030A7002030A8000030B7
:1000260083168712871107168312940140308316B0
:080036009400831294160800E7
:10003E008312031320089300831614182828000037
:0A004E00232883121308F0000800B5
:1000580083120313071406148316071006100320CF
:1000680007100A30A0001F2007141530FB004B3082
:10007800FC00BE30FD00FD0B3F28FC0B3F28FB0BAE
:100088003F28000006100B30A0001F200614153072
:10009800FB004B30FC00BE30FD00FD0B5128FC0B73
:0C00A8005128FB0B512800003428592877
:02400E004A2F37
:00000001FF
