:02000000562880
:10000600FF308312031386000B30FB002630FC0002
:100016005D30FD00FD0B0D28FC0B0D28FB0B0D289C
:100026000000000086010B30FB002630FC005D302E
:10003600FD00FD0B1C28FC0B1C28FB0B1C280000DC
:0400460000000800AE
:10004A00831203130608003A031930280608803A77
:10005A00031930284128013086000B30FB00263076
:10006A00FC005D30FD00FD0B3828FC0B3828FB0B2B
:10007A0038280000000055280608F000F00D70101E
:10008A00700886000B30FB002630FC005D30FD0056
:10009A00FD0B4D28FC0B4D28FB0B4D2800000000E2
:0200AA0008004C
:1000AC0083160313860103308800831286018312A2
:1000BC00081C63288316071068288312881C68287C
:1000CC00831607148316071C6D28032071288316CA
:0A00DC000718712825205D287228FE
:02400E004A2F37
:00000001FF
